:020000040800F2
:10000000B804002001010008790B0008710B0008FA
:10001000750B0008BD090008EB1300080000000084
:10002000000000000000000000000000190D0008A2
:10003000C109000800000000010C0008050F0008BD
:100040001B0100081B0100081B0100081B01000820
:100050001B0100081B0100081B0100081B01000810
:100060001B0100081B0100081B0100081B01000800
:100070001B0100081B0100081B0100081B010008F0
:100080001B0100081B0100081B0100081B010008E0
:100090001B0100081B0100081B0100081B010008D0
:1000A0001B0100081B0100081B0100081B010008C0
:1000B000750F00081B0100081B0100081B01000848
:1000C0001B0100081B0100081B0100081B010008A0
:1000D0001B0100081B0100081B010008D9110008C2
:1000E0001B0100081B0100081B010008DFF80CD0F1
:1000F00000F052FC00480047A51D0008B80400208D
:100100000648804706480047FEE7FEE7FEE7FEE7B1
:10011000FEE7FEE7FEE7FEE7FEE7FEE7150F000855
:10012000ED000008F0B480EA0102D40F4200B2EB07
:10013000410F02D20246084611464A0042D0C30D82
:10014000DDB2C1F3C752AD1A202D35DAC1F3160165
:1001500041F4000204B15242C5F1200602FA06F150
:100160002A411044B3EBD05F23D0C4B1012DA0EBE2
:10017000C35009DCF0BC4FF0004202EAC352DBB2CC
:1001800000F5000000F0DBBA400000F1807000EBE9
:10019000C350A0F1807040EAD170490009E04908DD
:1001A00041EAC071A0EBC35000F50000400800EB2D
:1001B000C350F0BC00F0BABA6142012202EB410127
:1001C000001BF6E7F0BC704781F00041AAE780F021
:1001D0000040A7E780EA010210B502F000434000AA
:1001E00022D04A001FD0010E01EB1261C0F356006D
:1001F000C2F3560240F4000042F40002A0FB0220C9
:1002000000047F39140400D0401C50EA124001D48D
:100210004000491EC2B20C0604EBD010401C40083E
:10022000802A02D003E0002010BD20F00100002948
:1002300000DA0020184310BD30B480EA010202F059
:10024000004530F0004221F0004013D090B1C30DC2
:10025000D40DC2F31601C0F31600E41A41F40001F4
:1002600040F400027D34914201D3641C00E0490057
:10027000002C02DA30BC002070474FF4000000234D
:10028000914201D3891A034340084FEA4101F7D153
:1002900051B1914202D14FF0004105E002D24FF03E
:1002A000010101E06FF0010103EBC450284430BCB0
:1002B00000F03CBA2DE9FE4F804681EA0300C00FF2
:1002C0000C46009021F0004123F00045B8EB0200FD
:1002D000A94105D24046214690461C460B4602469F
:1002E00023F00040104347D0270DC7F30A00C3F3A3
:1002F0000A510290401A019040286BDAC3F31300B0
:1003000040F4801B0098924620B10023D2EB030AF0
:1003100063EB0B0B01985946C0F14002504600F0C8
:10032000D4F906460D4650465946019A00F0ECF9BC
:1003300010EB08006141002487EA115284EAE77358
:100340001A4340D0009A62B3019A012A4FEA075239
:1003500015DC001B61EB02014FF0004202EA07527C
:10036000CDE90042001C41F5801132462B4600F0D9
:1003700023FA03B0BDE8F08F40462146F9E7001BA1
:1003800061EB0201001C41F5801300185B4120184D
:10039000A2F5001747EB030140EAD570B6196D418D
:1003A00011E06D084FEA360645EAC0754FEA07527C
:1003B000001B61EB0201001C41F5801149084FEA66
:1003C00030000019514132462B4603B0BDE8F04FD2
:1003D00000F0E3B90098012240000023D0EB0202B4
:1003E00063EBE073009821464FEAE074B8EB00003D
:1003F00061EB0401E9E783F000435BE781F0004132
:1004000058E72DE9F04D81EA030404F0004B21F098
:10041000004514464FF0000A23F0004150EA05025F
:1004200020D054EA01021DD0C5F30A570246C5F395
:100430001303C1F31300C1F30A5640F4801543F4CB
:100440008013A7EB0608101BD64608F2FD3873EBA5
:10045000050002D308F1010801E092185B41B8F1F0
:10046000000F03DA00200146BDE8F08D00204FF4B4
:100470008011064684460EE0171B73EB050705D373
:10048000121B63EB050306434CEA010C49084FEAD3
:10049000300092185B4150EA0107EDD152EA0300A7
:1004A00012D082EA040083EA0501084305D0101B3C
:1004B000AB4106D20122002306E000224FF00043A8
:1004C00002E06FF0010253101AEB06004CEB0851EA
:1004D00010EB0A0041EB0B01BDE8F04D00F05DB9F7
:1004E000C10F80EAE0700844CA079623002100F09B
:1004F00026B996230022114600F021B90EB5C10F8E
:1005000080EAE0700844CA07002140F233438DE8D6
:100510000E000A460B4600F04FF903B000BD00F094
:10052000004220F00040C10DC0F3160040F400006E
:100530007F2901DA00207047962903DCC1F196017A
:10054000C84001E096398840002AF4D04042704704
:1005500020F00040C10DC0F3160040F400007F29D8
:1005600001DA00207047962903DCC1F19601C840EA
:10057000704796398840704770B5C1F30A5201F050
:1005800000450024C1F3130140F2FF3341F4801110
:100590009A4201DA002070BD40F233439A42A2F23F
:1005A000334203DC524200F09FF800E090402C43BD
:1005B000F1D0404270BD00F0004230F000400AD05F
:1005C000C10D01F56071C0F3160042EA0151C20885
:1005D00040071143704700200146704701F0004377
:1005E00030B421F0004150EA010206D00A0DA2F514
:1005F0006072C1F31301002A02DC30BC0020704796
:10060000440F44EAC104C100E01830BC00EBC25002
:1006100000F08CB8002801DBC0F10040002901DBAC
:10062000C1F1004181427047002801DBC0F1004068
:10063000002901DBC1F100418842704730B50B460B
:10064000014600202022012409E021FA02F59D4202
:1006500005D303FA02F5491B04FA02F52844151ED6
:10066000A2F10102F1DC30BD2DE9F05F054600206A
:1006700092469B4688460646814640241BE0284613
:1006800041464746224600F02FF853465A46C01AC4
:10069000914110D311461846224600F016F82D1A43
:1006A00067EB01084F4622460120002100F00DF8BB
:1006B00017EB00094E41201EA4F10104DFDC48467F
:1006C00031462A464346BDE8F09F202A04DB203A03
:1006D00000FA02F1002070479140C2F1200320FA95
:1006E00003F3194390407047202A04DB203A21FA93
:1006F00002F00021704721FA02F3D040C2F120023B
:100700009140084319467047202A06DBCB17203A50
:1007100041FA02F043EAE07306E041FA02F3D04006
:10072000C2F1200291400843194670470029A8BF32
:100730007047401C490008BF20F00100704710B40A
:10074000B0FA80FC00FA0CF050EA010404BF10BCBF
:10075000704749B1CCF1200421FA04F411FA0CF1EC
:1007600018BF012121430843A3EB0C01CB1D4FEA25
:1007700000614FEA102042BF002010BC704700EB20
:10078000C35010440029A4BF10BC7047401C49004E
:1007900008BF20F0010010BC704710B5141E73F1A3
:1007A000000408DA401C41F1000192185B411A4331
:1007B00001D120F0010010BD2DE9F04D92469B467D
:1007C00011B1B1FA81F202E0B0FA80F22032904623
:1007D000FFF77BFF04460F4640EA0A0041EA0B019F
:1007E00053465A46084313D0114653EA010019D024
:1007F000C8F140025046FFF777FF05460E465046C7
:1008000059464246FFF761FF084305D0012004E046
:1008100020463946BDE8F08D0020054346EAE076E3
:100820002C4337430A986305E40AA0EB0800002232
:10083000FD0A44EA47540A3002D500200146E9E7A0
:10084000010510196941DDE9084500196941BDE854
:10085000F04DA2E72DE9FE4F81EA030404F00044C5
:1008600021F0004100944FF0000B23F0004350EAC8
:1008700001045ED052EA03045BD0C3F30A54C1F30F
:100880000A552C44A4F2F3340194A0FB0254C1F3A2
:10089000130141F48011C3F3130343F4801301FBEC
:1008A000024400FB034E840A970A44EA815447EA53
:1008B0008357A4FB076802958D0A05FB07854FEA5D
:1008C000932C04FB0C542705029D4FEA065847EA77
:1008D0001637B5EB08056EEB070C870E920E47EA4C
:1008E000811742EA8312A7FB0201B6EB0B0164EB0E
:1008F00000042B0D43EA0C335E1844EB1C50DA461F
:100900005146E7FB0201C5F313044FEA0B3343EAF8
:1009100014534FEA0432019C43EA0603A4F10C0489
:100920000294009CCDE900B4FFF746FF03B0BDE898
:10093000F08F00200146F9E7C1F30A52C1F3130119
:1009400040F2FF3341F480119A4202DA002001465E
:10095000704740F233439A42A2F2334202DC5242E1
:10096000FFF7C2BEFFF7B1BE30B5041E71F100043F
:1009700004DB4FF00044404264EB0101141E73F1AC
:10098000000405DB1C464FF00043524263EB0403B6
:10099000994208BF904230BD064C074D06E0E06822
:1009A00040F0010394E8070098471034AC42F6D3B6
:1009B000FFF7A0FB242200084422000800BFFEE746
:1009C00070472DE9F0410246002500260020002353
:1009D0000024002791F803C00CF00F0591F803C024
:1009E0000CF0100CBCF1000F03D091F802C04CEADF
:1009F000050591F800C0BCF1000F31D0146800204B
:100A00002BE04FF0010C0CFA00F3B1F800C00CEA37
:100A100003069E4220D183004FF00F0C0CFA03F71F
:100A2000BC4305FA03FC4CEA040491F803C0BCF192
:100A3000280F06D14FF0010C0CFA00FCC2F814C0CC
:100A40000AE091F803C0BCF1480F05D14FF0010C4A
:100A50000CFA00FCC2F810C0401C0828D1D3146066
:100A6000B1F800C0BCF1FF0F34DD546800202EE067
:100A700000F1080C4FF0010808FA0CF3B1F800C0BF
:100A80000CEA03069E4221D183004FF00F0C0CFAB2
:100A900003F7BC4305FA03FC4CEA040491F803C0D5
:100AA000BCF1280F05D100F1080C08FA0CF8C2F8C7
:100AB000148091F803C0BCF1480F07D100F1080C75
:100AC0004FF0010808FA0CF8C2F81080401C082802
:100AD000CED35460BDE8F081F0B50A46002300246F
:100AE0000021002500F00046B6F1004F02D11D4E56
:100AF000F16901E01B4E7168C0F3034583B200F455
:100B00004016B6F5401F08D121F07061154E766889
:100B100026F07066134F7E6012E000F48016B6F582
:100B2000801F06D1032606FA05F4A14341F0706147
:100B300006E0460D360103FA06F6B14341F0706156
:100B400022B1460D360103FA06F6314300F00046A5
:100B5000B6F1004F02D1034EF16101E0014E716028
:100B6000F0BD000000000140416170470161704725
:100B700000BFFEE700BFFEE77047000070B5002130
:100B800000230F22C47804B3154C246804F4E064F5
:100B9000C4F5E064210AC1F10403CA40447804FAB0
:100BA00003F184781440214309010E4C0678A155C5
:100BB000047804F01F050124AC4005786D11AD00E8
:100BC00005F1E025C5F8004109E0047804F01F05AF
:100BD0000124AC40044D0678761145F8264070BDDE
:100BE0000CED00E000E400E080E100E00249014398
:100BF000024A1160704700000000FA050CED00E0A9
:100C00007047000029B1064AD2690243044BDA61F9
:100C100004E0034AD2698243014BDA617047000065
:100C20000010024029B1064A92690243044B9A61BE
:100C300004E0034A92698243014B9A6170470000C5
:100C40000010024030B500210022002400232D4D69
:100C50006D6805F00C0121B1042905D0082923D1C4
:100C600005E0294D056022E0274D05601FE0254D78
:100C70006D6805F47012234D6D6805F4803402250B
:100C800005EB92421CB9214D554305600BE01D4D0B
:100C90006D6805F400351DB11C4D5543056002E03B
:100CA000194D5543056002E0174D056000BF00BFB8
:100CB000144D6D6805F0F0010909154D6B5C056870
:100CC000DD4045600F4D6D6805F4E061090A104D87
:100CD0006B5C4568DD4085600A4D6D6805F46051C8
:100CE000C90A0B4D6B5C4568DD40C560054D6D68FC
:100CF00005F44041890B074D6B5CC568B5FBF3F506
:100D0000056130BD0010024000127A0000093D006C
:100D1000000000201000002070470000014800780B
:100D2000704700001400002005480078012804D115
:100D3000002003490870012070470020FCE70000F4
:100D40001500002000B587B001210820FFF76AFFD9
:100D500001218804FFF756FF18208DF81B004FF47F
:100D60008060ADF8180003208DF81A0006A921480C
:100D7000FFF727FE48208DF81B004FF40060ADF808
:100D8000180003208DF81A0006A91A48FFF719FE6B
:100D90004FF4E13002900020ADF814000C20ADF8C3
:100DA00012000020ADF81000ADF80E00ADF80C00F8
:100DB00002A9114800F0A4FA01210F4800F037FA07
:100DC000012240F225510C4800F074FA4FF4A06063
:100DD000FFF70CFF27208DF8040001208DF8070095
:100DE0008DF805008DF8060001A8FFF7C7FE07B0D3
:100DF00000BD0000000C01400048004010B5044652
:100E00002146054800F0EDFA00BF8021024800F0BD
:100E10001AFA0028F9D010BD0048004010B500F0C3
:100E200001F810BD0CB50020019000903348006817
:100E300040F480303149086000BF3048006800F459
:100E4000003000900198401C0190009818B901985A
:100E5000B0F5A06FF1D12948006800F4003010B15E
:100E60000120009001E0002000900098012843D16B
:100E70002348006840F010002149086008460068D7
:100E800020F0030008600846006840F00200086097
:100E90001A48406819494860084640684860084652
:100EA000406840F4806048600846406820F47C1048
:100EB00048600846406840F4E8104860084600680A
:100EC00040F08070086000BF0C48006800F00070BF
:100ED0000028F9D00948406820F00300074948601D
:100EE0000846406840F00200486000BF0348406880
:100EF00000F00C000828F9D10CBD000000100240E1
:100F00000020024002480068401C01490860704708
:100F10001800002010B51348006840F00100114986
:100F2000086008464068104908400E494860084675
:100F300000680E4908400B4908600846006820F424
:100F4000802008600846406820F4FE0048604FF4A6
:100F50001F008860FFF762FF4FF0006004490860DF
:100F600010BD0000001002400000FFF8FFFFF6FE79
:100F700008ED00E010B50121880700F0C0F8002856
:100F800063D00121880700F0ABF83049304A12786D
:100F900001EB021148682F49FFF746FB06D22D48A6
:100FA0002A492B4A127801EB021148602749284A46
:100FB000127801EB021148682749FFF72BFB06D294
:100FC00025492248224A127800EB0210416023484A
:100FD000007880B91D491E4A127801EB0211486859
:100FE000FFF7B6FA4FF08041888501211848007854
:100FF00001F056F81AE01549154A127801EB021172
:101000004868FFF7A5FA40F6C4110C1A142C00DA50
:1010100014244FF080418C8500210D48007801F0A8
:101020003FF80B480078401C0949087008480078D0
:10103000082802DB0020064908700848007808B933
:10104000012000E000200549087010BD3400002098
:101050002100002000F01B450000FA431C00002086
:101060001FB501210846FFF7CDFD44F62060ADF81D
:1010700008004720ADF804000020ADF80A00ADF8E4
:10108000060001A94FF0804000F054F800214FF015
:10109000804000F019F801221146900700F040F856
:1010A0001C208DF8000000208DF8010003208DF831
:1010B000020001208DF803006846FFF75FFD012163
:1010C000880700F010F81FBD21B1028842F08002AD
:1010D000028004E002884FF67F731A400280704756
:1010E000CA430282704721B1028842F001020280A5
:1010F00004E002884FF6FE731A400280704730B554
:101100000246002000230024158A05EA0103958980
:1011100005EA010413B10CB1012000E0002030BD4C
:101120001AB183890B43838102E083898B438381D6
:1011300070470000002202881D4B98420ED01D4BC4
:1011400098420BD0B0F1804F08D01B4B984205D08D
:101150001A4B984202D01A4B984204D14FF68F7323
:101160001A404B881A43174B984207D0164B9842A7
:1011700004D04FF6FF431A40CB881A4302808B8875
:1011800083850B8803850A4B98420BD0094B984204
:1011900008D00E4B984205D00D4B984202D00D4B13
:1011A000984201D10B7A03860123838270470000A5
:1011B000002C0140003401400004004000080040C1
:1011C000000C0040001000400014004000400140AE
:1011D000004401400048014010B540F22551094843
:1011E00000F03EF801280CD1064800F0F5F8064959
:1011F000087001200549087040F22551014800F0AF
:1012000007F810BD00480040140000201500002021
:1012100010B50022002340F66A14A14200D100BF9D
:101220000A1201249440A3B2DC43048010BD21B112
:10123000828942F40052828104E082894DF6FF7374
:101240001A408281704702460020B1F5007F00D12C
:1012500000BF13880B400BB1012000E00020704755
:1012600070B50246002400230025002040F66A16CF
:10127000B14200D100BFC1F3421501F01F030126A6
:1012800006FA03F3012D02D19689334006E0022DC0
:1012900002D1168A334001E0968A33400C120126AF
:1012A00006FA04F41688344013B10CB1012000E0B2
:1012B000002070BDF0B50346002400260025002064
:1012C00040F66A17B94200D100BF1846C1F3421474
:1012D00001F01F06012707FA06F5012C01D10C3099
:1012E00004E0022C01D1103000E014301AB107687C
:1012F0002F43076002E00768AF430760F0BD0000BE
:101300002DE9F04786B005460E460024A24600BFF0
:10131000A1460027B08900B100BF2F462C8A4CF6A9
:10132000FF700440F08804432C82AC894EF6F31021
:101330000440B08831890843718908430443AC8173
:10134000AC8A4FF6FF400440B0890443AC8201A848
:10135000FFF778FC1F48874202D1DDF810A001E0BA
:10136000DDF80CA0A88900F4004040B10AEBCA00E7
:1013700000EB0A1031684900B0FBF1F807E00AEB16
:10138000CA0000EB0A1031688900B0FBF1F8642054
:10139000B8FBF0F004012009642101FB1089A88941
:1013A00000F4004040B1322000EBC900B0FBF1F086
:1013B00000F00700044308E0322000EB091064212C
:1013C000B0FBF1F000F00F0004432C8106B0BDE843
:1013D000F08700000038014001468888C0F308000B
:1013E0007047C1F308028280704700BFFEE700002B
:1013F0000FB4054B10B503A9044A029800F0DAF8BF
:1014000010BC5DF814FB0000591D000830000020DE
:1014100002E008C8121F08C1002AFAD170477047BD
:10142000002001E001C1121F002AFBD1704700001B
:101430002DE9FF5F82B00021DDE90430020DDDF807
:1014400040B0034318D044F61050A2F2FF3242439A
:101450001514119801281FD0A5EB0B00401C5FEA62
:10146000000A4FF000064E4FDFF83891B046504664
:1014700015D5CAF1000413E0119801244AA30128EC
:1014800001D16FEA0B010298119AC0E90031C0E95D
:10149000024206B0BDE8F09FCBF10000DFE7044652
:1014A0000021404A491842EB0450CDE9001012E0F7
:1014B000E00707D032463B4640464946FFF7CAF9A7
:1014C0008046894632463B4610461946FFF7C2F928
:1014D00006460F466410002CEAD1DDE90401DDE97F
:1014E0000023BAF1000F06DAFFF7B4F942464B4683
:1014F000FFF7B0F905E0FEF784FF42464B46FEF7E2
:1015000080FF04460E460022284BFFF72DFA03D831
:101510004FF0FF30014607E00022254B20463146C0
:10152000FEF7C8FEFFF708FA102409E0002C0ADBDA
:101530000A220023FFF798F8039B30321A55641EE5
:1015400050EA0102F2D1641C039AC4F1110314445D
:10155000119A012A03D0012208430DD10AE0084361
:1015600004D000204FF0110B119072E7A3EB0B0594
:101570006D1E0DE05B4504DD4FF0000205F1010535
:1015800004E003DA4FF00002A5F10105002AECD0D7
:1015900002981199C0E90231C0E9004579E70000DD
:1015A000000014400000F03F300000000000F04355
:1015B0000000E03F2DE9FF4F95B09B468946064667
:1015C00000250FE2252877D100242746F84A01217B
:1015D000059400E0044316F8013F203B01FA03F0B4
:1015E0001042F7D130782A2811D06FF02F033078CD
:1015F000A0F13002092A16D8059A44F0020402EB41
:10160000820203EB42021044761C0590EFE759F882
:10161000042B0592002A03DA504244F4005405904A
:1016200044F00204761C30782E2816D116F8010FEB
:1016300044F004042A280DD06FF02F023078A0F176
:101640003003092B09D807EB870302EB4303C718C4
:10165000761CF3E759F8047B761C30786C280FD0A1
:1016600006DC4C2817D068280DD06A2814D104E075
:10167000742810D07A280FD10DE044F400140AE049
:1016800044F4801401E044F440147278824202D1A0
:1016900004F58014761C761C307866280BD013DC99
:1016A000582877D009DC002875D04528F6D0462880
:1016B000F4D047281AD19DE118E0632835D064287A
:1016C00079D0652812D195E1702873D008DC67289D
:1016D000F1D069286FD06E280DD06F2806D1B5E003
:1016E00073282CD0752875D0782874D05A4617994D
:1016F00090476D1C75E1C4F30250022809D00328FD
:101700000DD0D9F8001004280DD00D6009F104099E
:1017100067E1D9F80010EA17C1E90052F6E7D9F8F5
:1017200000100D80F2E70D70F0E719F8041B8DF83A
:10173000001000208DF80100EA46012003E059F86E
:1017400004AB4FF0FF3061074FF0000102D40DE011
:1017500008F101018846B9420FDA8045F8DB1AF832
:1017600008100029F4D108E008F1010188468142FF
:10177000FADB1AF808100029F6D105985B46A0EBB1
:10178000080721463846179A00F094FA284400EBDF
:10179000080507E04DE029E10DE01AF8010B5A4673
:1017A00017999047B8F10108F7D25B4621463846B1
:1017B000179A13E142E00A220092C4F302524FF05A
:1017C000000A022A08D059F804CB032A4FEAEC7128
:1017D0000AD00DE029E02AE009F1070121F0070213
:1017E000F2E802C1914609E00FFA8CFC4FEAEC7175
:1017F000042A03D14FFA8CFC4FEAEC71002907DA76
:101800000A460021DCF1000C61EB02012D2202E00E
:10181000220504D52B228DF80420012203E0E207E3
:1018200001D02022F7E7904659E00A2102E0102279
:101830000DE010214FF0000A00910BE010224FF054
:10184000000A44F004040827009203E008224FF045
:10185000000A0092C4F30252022A05D059F804CBC0
:101860000021032A08D009E009F1070121F007024D
:10187000F2E802C1914605E01FFA8CFC042A01D16E
:101880000CF0FF0C4FF00008220728D5702806D076
:10189000009B83F0100353EA0A0305D00EE04022B8
:1018A0008DF80420012208E05CEA010206D0302213
:1018B0008DF804208DF8050002229046009B83F0ED
:1018C000080353EA0A030AD15CEA010201D1620764
:1018D00005D530228DF804204FF001087F1E5828CE
:1018E00004D034A003900EA802900DE036A0F9E7D2
:1018F00053466046009AFEF7B7FE84460398825C22
:101900000298401E029002705CEA0100F0D1029839
:1019100006A9081A00F1200A600702D524F48034D1
:1019200000E00127574502DDA7EB0A0000E0002098
:1019300000EB0A01009005984144401A0590E0032D
:1019400006D45B462146179A059800F0B3F9054482
:10195000002706E001A85A46C05D179990476D1C04
:101960007F1C4745F6DBE0030CD55B462146179A02
:10197000059800F09FF9054404E030205A46179975
:1019800090476D1C0099481E00900029F5DC08E086
:10199000029802995A460078491C0291179990477B
:1019A0006D1CBAF10001AAF1010AF1DC65E1000049
:1019B0000928010030313233343536373839616225
:1019C00063646566000000003031323334353637E9
:1019D00038394142434445460000000000F058F9C0
:1019E0000544761C307800287FF4ECAD19B0284609
:1019F000BDE8F08F620700D4062709F1070222F044
:101A0000070CFCE80223E14603F000485FEA080CFB
:101A100002D00FF2702C0DE05FEA045C02D50FF2E9
:101A2000682C07E05FEAC47C02D00FF2602C01E072
:101A3000AFF2700C4FF0FF3823F00043CDF850C0E8
:101A400065280CD006DC452809D046281DD047283B
:101A50003DD13DE0662818D067287ED138E00021CE
:101A6000112F01DB112000E0781CCDE9000106A94F
:101A70000EA8FFF7DDFCDDE90F010E9A03910021AE
:101A8000009207F1010A04914DE04FF000400097E9
:101A9000CDE9011006A90EA8FFF7CAFCDDE90F0287
:101AA00003920E9B11990022DDF80CA00093049282
:101AB00011B9791C00EB010AB7EB0A0004D4C0F19C
:101AC000FF3007F1010A0490AAEB0700019044E0FF
:101AD000012F00DA01270021112F01DD112000E084
:101AE0003846CDE9000106A90EA8FFF7A1FCDDE903
:101AF0000F010E9A0391002104910092BA4621072A
:101B00000CD40399514500DA8A46BAF1010F05DD7C
:101B1000009AAAF10101515C302908D0B84202DADA
:101B200010F1040F06DA0121CDE9011015E0AAF148
:101B30000101E9E7002805DC049901440491AAEBBE
:101B4000000102E0411C514500DD8A460499401A1B
:101B5000401C01904FF000400290200704D40198EF
:101B6000504501DBCDF8048000208DF84F0002982D
:101B70000DF14F07B0F1004F25D02B200E900298A9
:101B80004FF0020800280CDA404202902D200E90FF
:101B900007E00A210298FEF751FD3031029007F864
:101BA000011DB8F10001A8F10108F2DC029800283B
:101BB000EFD1791E0E980870307800F0200040F0C8
:101BC000450007F8020D12A8C01B00F10708149881
:101BD000007800B1012000EB0A01019801EBE071EF
:101BE00005984144401A401E0590E00306D45B4628
:101BF0002146179A059800F05DF80544149800787E
:101C000018B15A46179990476D1CE00324D55B46DE
:101C10002146179A059800F04DF805441CE00498F9
:101C2000002807DBDDE90301884203DD0098405C02
:101C3000179901E0179930205A469047049805F10A
:101C40000105401C04900198401E019004D12E20F3
:101C50005A46179990476D1CBAF10001AAF1010A82
:101C6000DDDC05E017F8010B5A46179990476D1C0B
:101C7000B8F10001A8F10108F4DC5B462146179A8F
:101C80000598ABE62D0000002B00000020000000AE
:101C90002DE9F041044600251E461746880404D469
:101CA00005E039462020B0476D1C641EF9D5284652
:101CB000BDE8F0812DE9F041044600251E4690461E
:101CC000C80301D5302700E02027880404D505E0AB
:101CD00041463846B0476D1C641EF9D52846BDE81C
:101CE000F081000070B504462046FEF7F9FB074975
:101CF00048604868FEF713FC05464FF47A7229469F
:101D0000002000F045F9002070BD000034000020E4
:101D100010B504462046FEF7E3FB02494861002067
:101D200010BD00003400002010B504462046FEF728
:101D3000D7FB02494862002010BD0000340000209B
:101D400010B504462046FEF7CBFB0249486300204D
:101D500010BD00003400002070B504460D46E0B20E
:101D6000FFF74CF8002070BD08B501210420FEF7F4
:101D700059FF4FF48070ADF8000048208DF8030043
:101D800003208DF8020069460548FEF71AFE4FF45D
:101D90000060ADF8000069460148FEF712FE08BD7C
:101DA0000008014000F00EFA00F0D4F900F0D6F976
:101DB000FEF7C8FF8DE0FEF7B7FF464908700846FA
:101DC000007801287DD1FEF7A9FF43490870084635
:101DD000017842A0FFF70CFB3F480078FEF789FB33
:101DE00044490860444943480068FEF725FA044620
:101DF0004249FEF7EFF93F49086008460068FEF7E0
:101E0000DAFB044622460B463DA0FFF7F1FA4048B4
:101E1000006898B9374801683E48FEF783F90546DF
:101E2000FEF77DFB0446FFF773FF394801683AA0CF
:101E3000FFF7DEFA0120364908604AE034480068BE
:101E4000012813D12B4801683248FEF76BF905468B
:101E5000FEF765FB0446FFF767FF2D4801682EA0DB
:101E6000FFF7C6FA02202A49086032E028480068D5
:101E7000022813D11F4801682648FEF753F905468A
:101E8000FEF74DFB0446FFF75BFF2148016822A0E7
:101E9000FFF7AEFA03201E4908601AE01C480068EC
:101EA000032815D1134801681A48FEF73BF9054687
:101EB000FEF735FB0446FFF715FF1548016816A02D
:101EC00000E005E0FFF794FA00201149086000E007
:101ED00000BF70E72C0000202D000020616E676CB1
:101EE0006520796F752073656E7420697320256491
:101EF0000A00000028000020000087430000FA4488
:101F00007468652050574D206973202566000000D5
:101F1000240000200000FA4374686520666C616745
:101F2000206973202564000008B501210920FEF70F
:101F300079FE01211448FEF7CFFD4FF47670ADF81D
:101F4000000003208DF8020010208DF80300694680
:101F50000E48FEF736FD0021084600F0A1F80021EA
:101F6000012000F09DF80021022000F099F80021E6
:101F7000032000F095F80021042000F091F80021E2
:101F8000052000F08DF808BD00043000000C014071
:101F90002DE9FF47044689469246082C75DA40F63B
:101FA000C410814571DCB9F5FA7F6EDB8000824593
:101FB0006BDA4846FEF794FA0546354800EB041004
:101FC00041682846FEF726FB0BD14846FEF796FAF5
:101FD0000746304A304BFEF76DF90546FEF7CCFA5E
:101FE000814640F6C110814500DD8146B9F5FA7F92
:101FF00001DA4FF4FA79BAF1140F13DA4846FEF712
:102000006FFA234901EB041108604846FEF768FAAD
:102010001F4901EB0411486000201D4901EB041128
:10202000886032E04846FEF75BFA194901EB04117B
:102030000860174800EB0410C0F80CA0144901EB2D
:102040000411C868FEF75AFA05460022134BFEF742
:10205000D8F90F4A02EB0412CDE9020151680C4A8B
:1020600002EB04121068FEF7AFF80546FEF7A3FA7C
:10207000CDE90001DDE90223FEF7C3F90746FEF7CB
:10208000ADFA034901EB04118860BDE8FF87000049
:1020900034000020D200DE02098A7F3F0000344075
:1020A00070B504460D4645B3062C24D2DFE804F093
:1020B00003080E14191E08212548FEF757FD1BE0E2
:1020C0004FF480712248FEF751FD15E04FF4007186
:1020D0001F48FEF74BFD0FE040211D48FEF746FD6F
:1020E0000AE080211A48FEF741FD05E0102118485A
:1020F000FEF73CFD00E000BF28E0062C24D2DFE81C
:1021000004F003080E14191E08211148FEF72CFDD7
:102110001BE04FF480710E48FEF726FD15E04FF4EA
:1021200000710B48FEF720FD0FE040210848FEF744
:102130001BFD0AE080210648FEF716FD05E0102190
:102140000348FEF711FD00E000BF00BF70BD0000B6
:10215000000C014010B5FFF707FE10BD10B50020C0
:10216000154908701EE015481549134A127801EB0D
:10217000021108601249104A127801EB02114860FE
:1021800000200F490C4A127801EB021188600C49BB
:10219000094A127801EB0211C86007480078401C18
:1021A00005490870044800780828DCDBFFF7BCFE0E
:1021B000FEF756FF10BD0000210000200080BB4448
:1021C0003400002010B500F001F810BD30B5124900
:1021D000B1F1807F00D31DE021F07F40401E4FF021
:1021E000E022506150170F22002807DA13071D0E56
:1021F0000A4B00F00F04241F1D5503E013071C0EAB
:10220000074B1C5400BF00204FF0E02290610720D4
:10221000106100BF30BD00004019010018ED00E062
:1022200000E400E044220008000000203400000028
:1022300010140008782200083400002084040000F4
:10224000201400080000000001020304010203043E
:10225000060708090204060800000000000000004C
:102260000000000000000000000000000000B44278
:08227000000000000000000066
:04000005080000ED02
:00000001FF
